{
    "contractName": "AutomobilePremiumCalculator",
    "abi": [
        {
            "inputs": [],
            "stateMutability": "nonpayable",
            "type": "constructor"
        },
        {
            "anonymous": false,
            "inputs": [
                {
                    "indexed": false,
                    "internalType": "string",
                    "name": "category",
                    "type": "string"
                },
                {
                    "indexed": false,
                    "internalType": "uint256",
                    "name": "newMultiplier",
                    "type": "uint256"
                }
            ],
            "name": "CoverageTypeMultiplierUpdated",
            "type": "event"
        },
        {
            "anonymous": false,
            "inputs": [
                {
                    "indexed": false,
                    "internalType": "string",
                    "name": "feature",
                    "type": "string"
                },
                {
                    "indexed": false,
                    "internalType": "int256",
                    "name": "newAdjustment",
                    "type": "int256"
                }
            ],
            "name": "SafetyFeatureAdjustmentUpdated",
            "type": "event"
        },
        {
            "anonymous": false,
            "inputs": [
                {
                    "indexed": false,
                    "internalType": "string",
                    "name": "category",
                    "type": "string"
                },
                {
                    "indexed": false,
                    "internalType": "uint256",
                    "name": "newFactor",
                    "type": "uint256"
                }
            ],
            "name": "VehicleCategoryUpdated",
            "type": "event"
        },
        {
            "inputs": [
                {
                    "internalType": "uint256",
                    "name": "driverAge",
                    "type": "uint256"
                },
                {
                    "internalType": "uint256",
                    "name": "accidents",
                    "type": "uint256"
                },
                {
                    "internalType": "uint256",
                    "name": "violations",
                    "type": "uint256"
                },
                {
                    "internalType": "string",
                    "name": "vehicleCategory",
                    "type": "string"
                },
                {
                    "internalType": "uint256",
                    "name": "vehicleAge",
                    "type": "uint256"
                },
                {
                    "internalType": "uint256",
                    "name": "mileage",
                    "type": "uint256"
                },
                {
                    "internalType": "string[]",
                    "name": "safetyFeatures",
                    "type": "string[]"
                },
                {
                    "internalType": "string",
                    "name": "coverageType",
                    "type": "string"
                },
                {
                    "internalType": "uint256",
                    "name": "vehicleValue",
                    "type": "uint256"
                }
            ],
            "name": "calculateInsurancePremium",
            "outputs": [
                {
                    "internalType": "uint256",
                    "name": "",
                    "type": "uint256"
                }
            ],
            "stateMutability": "view",
            "type": "function"
        },
        {
            "inputs": [
                {
                    "internalType": "string[]",
                    "name": "safetyFeatures",
                    "type": "string[]"
                }
            ],
            "name": "calculateSafetyFeatureDiscount",
            "outputs": [
                {
                    "internalType": "int256",
                    "name": "",
                    "type": "int256"
                }
            ],
            "stateMutability": "view",
            "type": "function"
        },
        {
            "inputs": [
                {
                    "internalType": "string",
                    "name": "",
                    "type": "string"
                }
            ],
            "name": "code",
            "outputs": [
                {
                    "internalType": "string",
                    "name": "",
                    "type": "string"
                }
            ],
            "stateMutability": "view",
            "type": "function"
        },
        {
            "inputs": [
                {
                    "internalType": "string",
                    "name": "",
                    "type": "string"
                }
            ],
            "name": "coverageTypeMultipliers",
            "outputs": [
                {
                    "internalType": "uint256",
                    "name": "",
                    "type": "uint256"
                }
            ],
            "stateMutability": "view",
            "type": "function"
        },
        {
            "inputs": [
                {
                    "internalType": "uint256",
                    "name": "driverAge",
                    "type": "uint256"
                },
                {
                    "internalType": "uint256",
                    "name": "accidents",
                    "type": "uint256"
                },
                {
                    "internalType": "uint256",
                    "name": "violations",
                    "type": "uint256"
                }
            ],
            "name": "driverRiskAdjustment",
            "outputs": [
                {
                    "internalType": "int256",
                    "name": "",
                    "type": "int256"
                }
            ],
            "stateMutability": "pure",
            "type": "function"
        },
        {
            "inputs": [],
            "name": "owner",
            "outputs": [
                {
                    "internalType": "address",
                    "name": "",
                    "type": "address"
                }
            ],
            "stateMutability": "view",
            "type": "function"
        },
        {
            "inputs": [
                {
                    "internalType": "string",
                    "name": "",
                    "type": "string"
                }
            ],
            "name": "safetyFeatureAdjustments",
            "outputs": [
                {
                    "internalType": "int256",
                    "name": "",
                    "type": "int256"
                }
            ],
            "stateMutability": "view",
            "type": "function"
        },
        {
            "inputs": [
                {
                    "internalType": "string",
                    "name": "category",
                    "type": "string"
                },
                {
                    "internalType": "uint256",
                    "name": "multiplier",
                    "type": "uint256"
                }
            ],
            "name": "setCoverageTypeMultipliers",
            "outputs": [],
            "stateMutability": "nonpayable",
            "type": "function"
        },
        {
            "inputs": [
                {
                    "internalType": "string",
                    "name": "feature",
                    "type": "string"
                },
                {
                    "internalType": "int256",
                    "name": "adjustment",
                    "type": "int256"
                }
            ],
            "name": "setSafetyFeatureAdjustments",
            "outputs": [],
            "stateMutability": "nonpayable",
            "type": "function"
        },
        {
            "inputs": [
                {
                    "internalType": "string",
                    "name": "category",
                    "type": "string"
                },
                {
                    "internalType": "uint256",
                    "name": "factor",
                    "type": "uint256"
                }
            ],
            "name": "setVehicleCategories",
            "outputs": [],
            "stateMutability": "nonpayable",
            "type": "function"
        },
        {
            "inputs": [
                {
                    "internalType": "string",
                    "name": "",
                    "type": "string"
                }
            ],
            "name": "vehicleCategories",
            "outputs": [
                {
                    "internalType": "uint256",
                    "name": "",
                    "type": "uint256"
                }
            ],
            "stateMutability": "view",
            "type": "function"
        },
        {
            "inputs": [
                {
                    "internalType": "string",
                    "name": "category",
                    "type": "string"
                },
                {
                    "internalType": "uint256",
                    "name": "age",
                    "type": "uint256"
                },
                {
                    "internalType": "uint256",
                    "name": "mileage",
                    "type": "uint256"
                },
                {
                    "internalType": "string[]",
                    "name": "safetyFeatures",
                    "type": "string[]"
                }
            ],
            "name": "vehicleRiskAdjustment",
            "outputs": [
                {
                    "internalType": "int256",
                    "name": "",
                    "type": "int256"
                }
            ],
            "stateMutability": "view",
            "type": "function"
        },
        {
            "inputs": [],
            "name": "viewCategories",
            "outputs": [
                {
                    "components": [
                        {
                            "internalType": "string",
                            "name": "sf",
                            "type": "string"
                        },
                        {
                            "internalType": "string",
                            "name": "sf1",
                            "type": "string"
                        },
                        {
                            "internalType": "string",
                            "name": "sf2",
                            "type": "string"
                        },
                        {
                            "internalType": "string",
                            "name": "sf3",
                            "type": "string"
                        },
                        {
                            "internalType": "string",
                            "name": "sf4",
                            "type": "string"
                        },
                        {
                            "internalType": "string",
                            "name": "ct",
                            "type": "string"
                        },
                        {
                            "internalType": "string",
                            "name": "ct1",
                            "type": "string"
                        },
                        {
                            "internalType": "string",
                            "name": "ct2",
                            "type": "string"
                        },
                        {
                            "internalType": "string",
                            "name": "ct3",
                            "type": "string"
                        },
                        {
                            "internalType": "string",
                            "name": "ct4",
                            "type": "string"
                        },
                        {
                            "internalType": "string",
                            "name": "v",
                            "type": "string"
                        },
                        {
                            "internalType": "string",
                            "name": "v1",
                            "type": "string"
                        },
                        {
                            "internalType": "string",
                            "name": "v2",
                            "type": "string"
                        },
                        {
                            "internalType": "string",
                            "name": "v3",
                            "type": "string"
                        },
                        {
                            "internalType": "string",
                            "name": "v4",
                            "type": "string"
                        },
                        {
                            "internalType": "string",
                            "name": "v5",
                            "type": "string"
                        },
                        {
                            "internalType": "string",
                            "name": "v6",
                            "type": "string"
                        }
                    ],
                    "internalType": "struct AutomobilePremiumCalculator.Categories",
                    "name": "categories",
                    "type": "tuple"
                }
            ],
            "stateMutability": "pure",
            "type": "function"
        }
    ],
    "bytecode": "60806040523480156200001157600080fd5b50600080546001600160a01b031916331790556200002e6200003e565b6200003862000251565b6200089b565b6000546001600160a01b031633146200009d5760405162461bcd60e51b815260206004820152601760248201527f43616c6c6572206973206e6f7420746865206f776e6572000000000000000000604482015260640160405180910390fd5b6009196001604051620000b9906273663160e81b815260030190565b90815260408051918290036020018220929092556239b31960e91b8152600160038083018290528351928390036023908101842060041990556273663360e81b8452838201839052845193849003810184206001199055621cd98d60ea1b8452838201929092528351928390038201832060021990556263743160e81b83526002838201819052845193849003830184206078908190556231ba1960e91b855284830182905285519485900384018520606e908190556263743360e81b8652858401839052865195869003850186206064908190556218dd0d60ea1b875286850184905287519687900390950186205561763160f01b85528482018390528551948590036022908101862094909455613b1960f11b8552848201839052855194859003840185205561763360f01b84528381018290528451938490038301842060969055611d8d60f21b84528381018290528451938490038301842060c8905561763560f01b84528381018290528451938490038301842060829055613b1b60f11b84528301529151908190039091019020608c9055565b604080518082018252601a81527f436f6d70726568656e736976652c207072696365203d20313230000000000000602082015281516263743160e81b81526004600382015291519182900360230190912090620002af9082620007cf565b50604080518082018252601681527f436f6c6c6973696f6e2c207072696365203d2031313000000000000000000000602082015281516231ba1960e91b815260046003820152915191829003602301909120906200030e9082620007cf565b50604080518082018252601681527f4c696162696c6974792c207072696365203d2031303000000000000000000000602082015281516263743360e81b815260046003820152915191829003602301909120906200036d9082620007cf565b5060405180606001604052806027815260200162001a4660279139604080516218dd0d60ea1b815260046003820152905190819003602301902090620003b49082620007cf565b50604080518082018252601481527f45636f6e6f6d792c207072696365203d203130300000000000000000000000006020820152815161763160f01b81526004600282015291519182900360220190912090620004129082620007cf565b50604080518082018252601681527f4d69642d52616e67652c207072696365203d203132300000000000000000000060208201528151613b1960f11b81526004600282015291519182900360220190912090620004709082620007cf565b50604080518082018252601381527f4c75787572792c207072696365203d20313530000000000000000000000000006020820152815161763360f01b81526004600282015291519182900360220190912090620004ce9082620007cf565b50604080518082018252601381527f53706f7274732c207072696365203d203230300000000000000000000000000060208201528151611d8d60f21b815260046002820152915191829003602201909120906200052c9082620007cf565b50604080518082018252601081526f05355562c207072696365203d203133360841b6020820152815161763560f01b815260046002820152915191829003602201909120906200057d9082620007cf565b50604080518082018252601781527f436f6d6d65726369616c2c207072696365203d2031343000000000000000000060208201528151613b1b60f11b81526004600282015291519182900360220190912090620005db9082620007cf565b5060405180606001604052806025815260200162001a6d60259139604080516273663160e81b815260046003820152905190819003602301902090620006229082620007cf565b50604080518082018252601e81527f616e74692d74686566742073797374656d2c20706f696e7473203d202d350000602082015281516239b31960e91b81526004600382015291519182900360230190912090620006819082620007cf565b50604080518082018252601c81527f7061726b696e672073656e736f72732c20706f696e7473203d202d3200000000602082015281516273663360e81b81526004600382015291519182900360230190912090620006e09082620007cf565b5060405180606001604052806022815260200162001a926022913960408051621cd98d60ea1b815260046003820152905190819003602301902090620007279082620007cf565b50565b634e487b7160e01b600052604160045260246000fd5b600181811c908216806200075557607f821691505b6020821081036200077657634e487b7160e01b600052602260045260246000fd5b50919050565b601f821115620007ca57600081815260208120601f850160051c81016020861015620007a55750805b601f850160051c820191505b81811015620007c657828155600101620007b1565b5050505b505050565b81516001600160401b03811115620007eb57620007eb6200072a565b6200080381620007fc845462000740565b846200077c565b602080601f8311600181146200083b5760008415620008225750858301515b600019600386901b1c1916600185901b178555620007c6565b600085815260208120601f198616915b828110156200086c578886015182559484019460019091019084016200084b565b50858210156200088b5787850151600019600388901b60f8161c191681555b5050505050600190811b01905550565b61119b80620008ab6000396000f3fe608060405234801561001057600080fd5b50600436106100cf5760003560e01c8063852f5a971161008c578063a677f99211610066578063a677f992146101ca578063a687029d146101ea578063b7b92c31146101fd578063f3dc762f1461022857600080fd5b8063852f5a97146101795780638da5cb5b1461018c578063a3621686146101b757600080fd5b80630d98f3e2146100d4578063100f3362146100f25780633dc664111461011357806345832795146101265780635434ea411461013b57806379f62f821461014e575b600080fd5b6100dc610253565b6040516100e99190610a49565b60405180910390f35b610105610100366004610da0565b6105ae565b6040519081526020016100e9565b610105610121366004610ddd565b61061a565b610139610134366004610ea0565b6106e4565b005b610105610149366004610ee5565b610777565b61010561015c366004610f5c565b805160208183018101805160038252928201919093012091525481565b610105610187366004610f91565b6107f6565b60005461019f906001600160a01b031681565b6040516001600160a01b0390911681526020016100e9565b6101396101c5366004610ea0565b610858565b6101dd6101d8366004610f5c565b6108d6565b6040516100e99190610fbd565b6101396101f8366004610ea0565b61097b565b61010561020b366004610f5c565b805160208183018101805160028252928201919093012091525481565b610105610236366004610f5c565b805160208183018101805160018252928201919093012091525481565b6102da60405180610220016040528060608152602001606081526020016060815260200160608152602001606081526020016060815260200160608152602001606081526020016060815260200160608152602001606081526020016060815260200160608152602001606081526020016060815260200160608152602001606081525090565b506040805161026081018252601361022082018181527273663a2053616665747920666561747572657360681b610240840152825282518084018452601c81527f7366313a20416476616e636520536166657479206665617475726573000000006020828101919091528084019190915283518085018552600f81526e1cd98c8e88105b9d1a481d1a19599d608a1b8183015283850152835180850185528281527239b3199d102830b935b4b7339029b2b739b7b960691b81830152606084015283518085018552601781527f7366343a20426c696e642073706f74204d6f6e69746f720000000000000000008183015260808401528351808501855260128082527163743a20436f76657261676520547970657360701b8284015260a085019190915284518086018652908152716374313a20436f6d70726568656e7369766560701b8183015260c084015283518085018552600e8082526d31ba191d1021b7b63634b9b4b7b760911b8284015260e0850191909152845180860186529081526d6374333a204c696162696c69747960901b818301526101008401528351808501855260148152736374343a20506572736f6e616c20496e6a75727960601b818301526101208401528351808501855291825272763a2056656869636c652043617465676f727960681b8282015261014083019190915282518084018452600a8082526976313a45636f6e6f6d7960b01b8284015261016084019190915283518085018552600c81526b76323a4d69642d52616e676560a01b81840152610180840152835180850185529081526976333a204c757875727960b01b818301526101a083015282518084018452600981526876343a53706f72747360b81b818301526101c08301528251808401845260068152653b1a9d29aaab60d11b818301526101e08301528251808401909352600d83526c1d8d8e90dbdb5b595c98da585b609a1b9083015261020081019190915290565b600080805b83518110156106135760018482815181106105d0576105d0610fd7565b60200260200101516040516105e59190610fed565b908152602001604051809103902054826105ff919061101f565b91508061060b81611047565b9150506105b3565b5092915050565b600060648161062a8c8c8c6107f6565b9050600061063a8a8a8a8a610777565b9050600060028760405161064e9190610fed565b908152604051908190036020019020549050600060648361066f868361101f565b610679919061101f565b6106839087611060565b61068d9190611096565b90506103e861069c8883611060565b6106a69190611096565b905060646106b48383611060565b6106be9190611096565b9050600081136106cf5760006106d1565b805b9f9e505050505050505050505050505050565b6000546001600160a01b031633146107175760405162461bcd60e51b815260040161070e906110d2565b60405180910390fd5b806001836040516107289190610fed565b9081526020016040518091039020819055507f814b5e225643e7e4840210176e672a55b516c2e38fbcb9fd2d9e239a4e6c3d90828260405161076b929190611109565b60405180910390a15050565b60008060038660405161078a9190610fed565b9081526020016040518091039020549050600a85116107ab576004196107ae565b600a5b6107b8908261101f565b90506107c3836105ae565b6107cd908261101f565b9050614e2084116107df5760006107e2565b60055b6107ec908261101f565b9695505050505050565b60008060198510806108085750604185115b61081457600919610817565b60145b610821908261101f565b905061082e84600f611060565b610838908261101f565b905061084583600a611060565b61084f908261101f565b95945050505050565b6000546001600160a01b031633146108825760405162461bcd60e51b815260040161070e906110d2565b806002836040516108939190610fed565b9081526020016040518091039020819055507f628dd2481b37233ebd9c8bc1c1ec634a326b92d124c5556970aa1f4e9a4a5798828260405161076b929190611109565b8051602081830181018051600482529282019190930120915280546108fa9061112b565b80601f01602080910402602001604051908101604052809291908181526020018280546109269061112b565b80156109735780601f1061094857610100808354040283529160200191610973565b820191906000526020600020905b81548152906001019060200180831161095657829003601f168201915b505050505081565b6000546001600160a01b031633146109a55760405162461bcd60e51b815260040161070e906110d2565b806003836040516109b69190610fed565b9081526020016040518091039020819055507f65ab8b70eb1014f4f1399cb0dcc7fc53b5b3c17cebd0b57aa26b0be6d67b6614828260405161076b929190611109565b60005b83811015610a145781810151838201526020016109fc565b50506000910152565b60008151808452610a358160208601602086016109f9565b601f01601f19169290920160200192915050565b6020815260008251610220806020850152610a68610240850183610a1d565b91506020850151601f1980868503016040870152610a868483610a1d565b93506040870151915080868503016060870152610aa38483610a1d565b93506060870151915080868503016080870152610ac08483610a1d565b935060808701519150808685030160a0870152610add8483610a1d565b935060a08701519150808685030160c0870152610afa8483610a1d565b935060c08701519150808685030160e0870152610b178483610a1d565b935060e08701519150610100818786030181880152610b368584610a1d565b945080880151925050610120818786030181880152610b558584610a1d565b945080880151925050610140818786030181880152610b748584610a1d565b945080880151925050610160818786030181880152610b938584610a1d565b945080880151925050610180818786030181880152610bb28584610a1d565b9450808801519250506101a0818786030181880152610bd18584610a1d565b9450808801519250506101c0818786030181880152610bf08584610a1d565b9450808801519250506101e0818786030181880152610c0f8584610a1d565b945080880151925050610200818786030181880152610c2e8584610a1d565b9088015187820390920184880152935090506107ec8382610a1d565b634e487b7160e01b600052604160045260246000fd5b604051601f8201601f1916810167ffffffffffffffff81118282101715610c8957610c89610c4a565b604052919050565b600082601f830112610ca257600080fd5b813567ffffffffffffffff811115610cbc57610cbc610c4a565b610ccf601f8201601f1916602001610c60565b818152846020838601011115610ce457600080fd5b816020850160208301376000918101602001919091529392505050565b600082601f830112610d1257600080fd5b8135602067ffffffffffffffff80831115610d2f57610d2f610c4a565b8260051b610d3e838201610c60565b9384528581018301938381019088861115610d5857600080fd5b84880192505b85831015610d9457823584811115610d765760008081fd5b610d848a87838c0101610c91565b8352509184019190840190610d5e565b98975050505050505050565b600060208284031215610db257600080fd5b813567ffffffffffffffff811115610dc957600080fd5b610dd584828501610d01565b949350505050565b60008060008060008060008060006101208a8c031215610dfc57600080fd5b8935985060208a0135975060408a0135965060608a013567ffffffffffffffff80821115610e2957600080fd5b610e358d838e01610c91565b975060808c0135965060a08c0135955060c08c0135915080821115610e5957600080fd5b610e658d838e01610d01565b945060e08c0135915080821115610e7b57600080fd5b50610e888c828d01610c91565b9250506101008a013590509295985092959850929598565b60008060408385031215610eb357600080fd5b823567ffffffffffffffff811115610eca57600080fd5b610ed685828601610c91565b95602094909401359450505050565b60008060008060808587031215610efb57600080fd5b843567ffffffffffffffff80821115610f1357600080fd5b610f1f88838901610c91565b955060208701359450604087013593506060870135915080821115610f4357600080fd5b50610f5087828801610d01565b91505092959194509250565b600060208284031215610f6e57600080fd5b813567ffffffffffffffff811115610f8557600080fd5b610dd584828501610c91565b600080600060608486031215610fa657600080fd5b505081359360208301359350604090920135919050565b602081526000610fd06020830184610a1d565b9392505050565b634e487b7160e01b600052603260045260246000fd5b60008251610fff8184602087016109f9565b9190910192915050565b634e487b7160e01b600052601160045260246000fd5b808201828112600083128015821682158216171561103f5761103f611009565b505092915050565b60006001820161105957611059611009565b5060010190565b80820260008212600160ff1b8414161561107c5761107c611009565b818105831482151761109057611090611009565b92915050565b6000826110b357634e487b7160e01b600052601260045260246000fd5b600160ff1b8214600019841416156110cd576110cd611009565b500590565b60208082526017908201527f43616c6c6572206973206e6f7420746865206f776e6572000000000000000000604082015260600190565b60408152600061111c6040830185610a1d565b90508260208301529392505050565b600181811c9082168061113f57607f821691505b60208210810361115f57634e487b7160e01b600052602260045260246000fd5b5091905056fea2646970667358221220435e918aed50a5c2676141789f62fa5ad276da7d29042105d2dd8eb1684311b264736f6c63430008130033506572736f6e616c20496e6a7572792050726f74656374696f6e2c207072696365203d20313130616476616e63656420736166657479207061636b6167652c20706f696e7473203d202d3130626c696e642073706f74206d6f6e69746f72696e672c20706f696e7473203d202d33",
    "sourcePath": "/home/panshak/InsuranceBackend/src/AutomobilePremiumCalculator.sol",
    "compiler": {
        "name": "solc",
        "version": "0.8.19+commit.7dd6d404"
    },
    "functionHashes": {
        "calculateInsurancePremium(uint256,uint256,uint256,string,uint256,uint256,string[],string,uint256)": "3dc66411",
        "calculateSafetyFeatureDiscount(string[])": "100f3362",
        "code(string)": "a677f992",
        "coverageTypeMultipliers(string)": "b7b92c31",
        "driverRiskAdjustment(uint256,uint256,uint256)": "852f5a97",
        "owner()": "8da5cb5b",
        "safetyFeatureAdjustments(string)": "f3dc762f",
        "setCoverageTypeMultipliers(string,uint256)": "a3621686",
        "setSafetyFeatureAdjustments(string,int256)": "45832795",
        "setVehicleCategories(string,uint256)": "a687029d",
        "vehicleCategories(string)": "79f62f82",
        "vehicleRiskAdjustment(string,uint256,uint256,string[])": "5434ea41",
        "viewCategories()": "0d98f3e2"
    },
    "gasEstimates": {
        "creation": {
            "codeDepositCost": "901400",
            "executionCost": "infinite",
            "totalCost": "infinite"
        },
        "external": {
            "calculateInsurancePremium(uint256,uint256,uint256,string,uint256,uint256,string[],string,uint256)": "infinite",
            "calculateSafetyFeatureDiscount(string[])": "infinite",
            "code(string)": "infinite",
            "coverageTypeMultipliers(string)": "infinite",
            "driverRiskAdjustment(uint256,uint256,uint256)": "infinite",
            "owner()": "2382",
            "safetyFeatureAdjustments(string)": "infinite",
            "setCoverageTypeMultipliers(string,uint256)": "infinite",
            "setSafetyFeatureAdjustments(string,int256)": "infinite",
            "setVehicleCategories(string,uint256)": "infinite",
            "vehicleCategories(string)": "infinite",
            "vehicleRiskAdjustment(string,uint256,uint256,string[])": "infinite",
            "viewCategories()": "infinite"
        },
        "internal": {
            "setCategories()": "infinite",
            "viewCodes()": "infinite"
        }
    }
}