{
    "contractName": "AutomobileInsurancePolicy",
    "abi": [
        {
            "inputs": [
                {
                    "internalType": "address",
                    "name": "_calculator",
                    "type": "address"
                }
            ],
            "stateMutability": "nonpayable",
            "type": "constructor"
        },
        {
            "anonymous": false,
            "inputs": [
                {
                    "indexed": true,
                    "internalType": "address",
                    "name": "claimant",
                    "type": "address"
                },
                {
                    "indexed": false,
                    "internalType": "uint256",
                    "name": "policyId",
                    "type": "uint256"
                },
                {
                    "indexed": false,
                    "internalType": "bool",
                    "name": "approved",
                    "type": "bool"
                },
                {
                    "indexed": false,
                    "internalType": "uint256",
                    "name": "payout",
                    "type": "uint256"
                }
            ],
            "name": "ClaimProcessed",
            "type": "event"
        },
        {
            "anonymous": false,
            "inputs": [
                {
                    "indexed": false,
                    "internalType": "uint256",
                    "name": "claimId",
                    "type": "uint256"
                },
                {
                    "indexed": false,
                    "internalType": "enum AutomobileInsurancePolicy.ClaimStatus",
                    "name": "status",
                    "type": "uint8"
                },
                {
                    "indexed": false,
                    "internalType": "uint256",
                    "name": "amount",
                    "type": "uint256"
                }
            ],
            "name": "ClaimStatusChanged",
            "type": "event"
        },
        {
            "anonymous": false,
            "inputs": [
                {
                    "indexed": false,
                    "internalType": "string",
                    "name": "message",
                    "type": "string"
                },
                {
                    "indexed": false,
                    "internalType": "uint256",
                    "name": "value",
                    "type": "uint256"
                }
            ],
            "name": "Debug",
            "type": "event"
        },
        {
            "anonymous": false,
            "inputs": [
                {
                    "indexed": true,
                    "internalType": "address",
                    "name": "policyHolder",
                    "type": "address"
                },
                {
                    "indexed": false,
                    "internalType": "uint256",
                    "name": "time",
                    "type": "uint256"
                }
            ],
            "name": "PolicyInitiated",
            "type": "event"
        },
        {
            "anonymous": false,
            "inputs": [
                {
                    "indexed": true,
                    "internalType": "address",
                    "name": "policyHolder",
                    "type": "address"
                },
                {
                    "indexed": false,
                    "internalType": "uint256",
                    "name": "time",
                    "type": "uint256"
                }
            ],
            "name": "PolicyRenewed",
            "type": "event"
        },
        {
            "anonymous": false,
            "inputs": [
                {
                    "indexed": true,
                    "internalType": "address",
                    "name": "policyHolder",
                    "type": "address"
                },
                {
                    "indexed": false,
                    "internalType": "string",
                    "name": "reason",
                    "type": "string"
                },
                {
                    "indexed": false,
                    "internalType": "uint256",
                    "name": "time",
                    "type": "uint256"
                }
            ],
            "name": "PolicyTerminated",
            "type": "event"
        },
        {
            "anonymous": false,
            "inputs": [
                {
                    "indexed": false,
                    "internalType": "address",
                    "name": "voter",
                    "type": "address"
                },
                {
                    "indexed": false,
                    "internalType": "uint256",
                    "name": "claimId",
                    "type": "uint256"
                },
                {
                    "indexed": false,
                    "internalType": "bool",
                    "name": "vote",
                    "type": "bool"
                }
            ],
            "name": "VoteLogged",
            "type": "event"
        },
        {
            "inputs": [
                {
                    "internalType": "uint256",
                    "name": "",
                    "type": "uint256"
                }
            ],
            "name": "Allclaims",
            "outputs": [
                {
                    "internalType": "uint256",
                    "name": "policyId",
                    "type": "uint256"
                },
                {
                    "internalType": "address",
                    "name": "policyholder",
                    "type": "address"
                },
                {
                    "internalType": "uint256",
                    "name": "claimAmount",
                    "type": "uint256"
                },
                {
                    "internalType": "string",
                    "name": "claimDetails",
                    "type": "string"
                },
                {
                    "internalType": "enum AutomobileInsurancePolicy.ClaimStatus",
                    "name": "status",
                    "type": "uint8"
                }
            ],
            "stateMutability": "view",
            "type": "function"
        },
        {
            "inputs": [],
            "name": "Calculator",
            "outputs": [
                {
                    "internalType": "contract IPropertyPremiumCalculator",
                    "name": "",
                    "type": "address"
                }
            ],
            "stateMutability": "view",
            "type": "function"
        },
        {
            "inputs": [
                {
                    "internalType": "address",
                    "name": "_voter",
                    "type": "address"
                }
            ],
            "name": "addVoter",
            "outputs": [],
            "stateMutability": "nonpayable",
            "type": "function"
        },
        {
            "inputs": [
                {
                    "internalType": "address",
                    "name": "policyHolder",
                    "type": "address"
                },
                {
                    "internalType": "uint256",
                    "name": "id",
                    "type": "uint256"
                }
            ],
            "name": "checkPolicy",
            "outputs": [
                {
                    "components": [
                        {
                            "internalType": "address",
                            "name": "holder",
                            "type": "address"
                        },
                        {
                            "internalType": "uint256",
                            "name": "policyId",
                            "type": "uint256"
                        },
                        {
                            "internalType": "uint256",
                            "name": "premium",
                            "type": "uint256"
                        },
                        {
                            "internalType": "string",
                            "name": "location",
                            "type": "string"
                        },
                        {
                            "internalType": "string",
                            "name": "propertyType",
                            "type": "string"
                        },
                        {
                            "internalType": "uint256",
                            "name": "age",
                            "type": "uint256"
                        },
                        {
                            "internalType": "string[]",
                            "name": "protections",
                            "type": "string[]"
                        },
                        {
                            "internalType": "uint256",
                            "name": "propertyValue",
                            "type": "uint256"
                        },
                        {
                            "internalType": "bool",
                            "name": "isActive",
                            "type": "bool"
                        },
                        {
                            "internalType": "uint256",
                            "name": "creationDate",
                            "type": "uint256"
                        },
                        {
                            "internalType": "uint256",
                            "name": "lastPaymentDate",
                            "type": "uint256"
                        },
                        {
                            "internalType": "uint256",
                            "name": "terminationDate",
                            "type": "uint256"
                        },
                        {
                            "internalType": "string",
                            "name": "terminationReason",
                            "type": "string"
                        },
                        {
                            "internalType": "enum AutomobileInsurancePolicy.ClaimStatus",
                            "name": "status",
                            "type": "uint8"
                        }
                    ],
                    "internalType": "struct AutomobileInsurancePolicy.Policy",
                    "name": "policy_",
                    "type": "tuple"
                }
            ],
            "stateMutability": "view",
            "type": "function"
        },
        {
            "inputs": [
                {
                    "internalType": "address",
                    "name": "policyHolder",
                    "type": "address"
                },
                {
                    "internalType": "uint256",
                    "name": "policyId",
                    "type": "uint256"
                }
            ],
            "name": "checkPolicyStatus",
            "outputs": [
                {
                    "internalType": "bool",
                    "name": "",
                    "type": "bool"
                }
            ],
            "stateMutability": "view",
            "type": "function"
        },
        {
            "inputs": [],
            "name": "drainContract",
            "outputs": [],
            "stateMutability": "nonpayable",
            "type": "function"
        },
        {
            "inputs": [
                {
                    "internalType": "uint256",
                    "name": "_policyId",
                    "type": "uint256"
                },
                {
                    "internalType": "uint256",
                    "name": "_claimAmount",
                    "type": "uint256"
                },
                {
                    "internalType": "string",
                    "name": "_claimDetails",
                    "type": "string"
                },
                {
                    "internalType": "string[]",
                    "name": "_image",
                    "type": "string[]"
                }
            ],
            "name": "fileClaim",
            "outputs": [],
            "stateMutability": "nonpayable",
            "type": "function"
        },
        {
            "inputs": [
                {
                    "internalType": "address",
                    "name": "_policyHolder",
                    "type": "address"
                },
                {
                    "internalType": "string",
                    "name": "location",
                    "type": "string"
                },
                {
                    "internalType": "string",
                    "name": "propertyType",
                    "type": "string"
                },
                {
                    "internalType": "uint256",
                    "name": "age",
                    "type": "uint256"
                },
                {
                    "internalType": "string[]",
                    "name": "protections",
                    "type": "string[]"
                },
                {
                    "internalType": "uint256",
                    "name": "propertyValue",
                    "type": "uint256"
                }
            ],
            "name": "generatePremium",
            "outputs": [
                {
                    "internalType": "uint256",
                    "name": "premium_",
                    "type": "uint256"
                }
            ],
            "stateMutability": "nonpayable",
            "type": "function"
        },
        {
            "inputs": [],
            "name": "getAllClaim",
            "outputs": [
                {
                    "components": [
                        {
                            "internalType": "uint256",
                            "name": "policyId",
                            "type": "uint256"
                        },
                        {
                            "internalType": "address",
                            "name": "policyholder",
                            "type": "address"
                        },
                        {
                            "internalType": "uint256",
                            "name": "claimAmount",
                            "type": "uint256"
                        },
                        {
                            "internalType": "string",
                            "name": "claimDetails",
                            "type": "string"
                        },
                        {
                            "internalType": "string[]",
                            "name": "image",
                            "type": "string[]"
                        },
                        {
                            "internalType": "enum AutomobileInsurancePolicy.ClaimStatus",
                            "name": "status",
                            "type": "uint8"
                        }
                    ],
                    "internalType": "struct AutomobileInsurancePolicy.Claim[]",
                    "name": "",
                    "type": "tuple[]"
                }
            ],
            "stateMutability": "view",
            "type": "function"
        },
        {
            "inputs": [
                {
                    "internalType": "uint256",
                    "name": "claimId",
                    "type": "uint256"
                }
            ],
            "name": "getVoteCounts",
            "outputs": [
                {
                    "internalType": "uint256",
                    "name": "approveCount",
                    "type": "uint256"
                },
                {
                    "internalType": "uint256",
                    "name": "rejectCount",
                    "type": "uint256"
                },
                {
                    "internalType": "uint256",
                    "name": "totalVotes",
                    "type": "uint256"
                }
            ],
            "stateMutability": "view",
            "type": "function"
        },
        {
            "inputs": [
                {
                    "internalType": "address",
                    "name": "policyHolder",
                    "type": "address"
                },
                {
                    "internalType": "uint256",
                    "name": "id",
                    "type": "uint256"
                }
            ],
            "name": "initiatePolicy",
            "outputs": [],
            "stateMutability": "payable",
            "type": "function"
        },
        {
            "inputs": [
                {
                    "internalType": "address",
                    "name": "",
                    "type": "address"
                },
                {
                    "internalType": "uint256",
                    "name": "",
                    "type": "uint256"
                }
            ],
            "name": "lastClaims",
            "outputs": [
                {
                    "internalType": "uint256",
                    "name": "policyId",
                    "type": "uint256"
                },
                {
                    "internalType": "address",
                    "name": "policyholder",
                    "type": "address"
                },
                {
                    "internalType": "uint256",
                    "name": "claimAmount",
                    "type": "uint256"
                },
                {
                    "internalType": "string",
                    "name": "claimDetails",
                    "type": "string"
                },
                {
                    "internalType": "enum AutomobileInsurancePolicy.ClaimStatus",
                    "name": "status",
                    "type": "uint8"
                }
            ],
            "stateMutability": "view",
            "type": "function"
        },
        {
            "inputs": [],
            "name": "minimumVotes",
            "outputs": [
                {
                    "internalType": "uint256",
                    "name": "",
                    "type": "uint256"
                }
            ],
            "stateMutability": "view",
            "type": "function"
        },
        {
            "inputs": [],
            "name": "owner",
            "outputs": [
                {
                    "internalType": "address",
                    "name": "",
                    "type": "address"
                }
            ],
            "stateMutability": "view",
            "type": "function"
        },
        {
            "inputs": [
                {
                    "internalType": "address",
                    "name": "policyHolder",
                    "type": "address"
                },
                {
                    "internalType": "uint256",
                    "name": "id",
                    "type": "uint256"
                }
            ],
            "name": "renewPolicy",
            "outputs": [],
            "stateMutability": "payable",
            "type": "function"
        },
        {
            "inputs": [
                {
                    "internalType": "address",
                    "name": "policyHolder",
                    "type": "address"
                },
                {
                    "internalType": "string",
                    "name": "reason",
                    "type": "string"
                }
            ],
            "name": "terminatePolicy",
            "outputs": [],
            "stateMutability": "nonpayable",
            "type": "function"
        },
        {
            "inputs": [],
            "name": "totalVoters",
            "outputs": [
                {
                    "internalType": "uint256",
                    "name": "",
                    "type": "uint256"
                }
            ],
            "stateMutability": "view",
            "type": "function"
        },
        {
            "inputs": [
                {
                    "internalType": "uint256",
                    "name": "_claimId",
                    "type": "uint256"
                },
                {
                    "internalType": "enum AutomobileInsurancePolicy.VoteOption",
                    "name": "_vote",
                    "type": "uint8"
                }
            ],
            "name": "voteOnClaim",
            "outputs": [],
            "stateMutability": "nonpayable",
            "type": "function"
        },
        {
            "inputs": [
                {
                    "internalType": "uint256",
                    "name": "",
                    "type": "uint256"
                }
            ],
            "name": "voters",
            "outputs": [
                {
                    "internalType": "address",
                    "name": "",
                    "type": "address"
                }
            ],
            "stateMutability": "view",
            "type": "function"
        },
        {
            "inputs": [
                {
                    "internalType": "uint256",
                    "name": "",
                    "type": "uint256"
                },
                {
                    "internalType": "address",
                    "name": "",
                    "type": "address"
                }
            ],
            "name": "votes",
            "outputs": [
                {
                    "internalType": "bool",
                    "name": "voted",
                    "type": "bool"
                },
                {
                    "internalType": "enum AutomobileInsurancePolicy.VoteOption",
                    "name": "option",
                    "type": "uint8"
                }
            ],
            "stateMutability": "view",
            "type": "function"
        }
    ],
    "bytecode": "60806040526000600c556000600d553480156200001b57600080fd5b5060405162002eb338038062002eb38339810160408190526200003e916200006d565b600080546001600160a01b039092166001600160a01b031992831617905560018054909116331790556200009f565b6000602082840312156200008057600080fd5b81516001600160a01b03811681146200009857600080fd5b9392505050565b612e0480620000af6000396000f3fe60806040526004361061011f5760003560e01c80638da5cb5b116100a0578063d1a38b3011610064578063d1a38b3014610370578063d23254b414610390578063da58c7d9146103e2578063e6e8ef4d14610402578063f4ab9adf1461042257600080fd5b80638da5cb5b146102d7578063a2f7d4c3146102f7578063b845265214610328578063ccb9aae41461033b578063d0360e591461035b57600080fd5b80636407e0d4116100e75780636407e0d4146101fa5780636604462f14610210578063819d86431461023057806389dbbd2e146102435780638a241f4c1461029c57600080fd5b806313d74acd14610124578063254b6ca6146101465780633441ecf2146101715780635ee388f7146101a95780635f5300ff146101d6575b600080fd5b34801561013057600080fd5b5061014461013f366004612463565b610442565b005b34801561015257600080fd5b5061015b6108cc565b60405161016891906125b9565b60405180910390f35b34801561017d57600080fd5b50600054610191906001600160a01b031681565b6040516001600160a01b039091168152602001610168565b3480156101b557600080fd5b506101c96101c436600461269b565b610af4565b60405161016891906126c5565b3480156101e257600080fd5b506101ec600c5481565b604051908152602001610168565b34801561020657600080fd5b506101ec600d5481565b34801561021c57600080fd5b5061014461022b3660046127e3565b610e62565b61014461023e36600461269b565b611035565b34801561024f57600080fd5b5061028c61025e36600461269b565b6001600160a01b03919091166000908152600960209081526040808320938352929052206008015460ff1690565b6040519015158152602001610168565b3480156102a857600080fd5b506102bc6102b7366004612817565b61126a565b60408051938452602084019290925290820152606001610168565b3480156102e357600080fd5b50600154610191906001600160a01b031681565b34801561030357600080fd5b5061031761031236600461269b565b611447565b604051610168959493929190612830565b61014461033636600461269b565b611518565b34801561034757600080fd5b50610144610356366004612878565b611655565b34801561036757600080fd5b50610144611767565b34801561037c57600080fd5b5061031761038b366004612817565b61183c565b34801561039c57600080fd5b506103d46103ab3660046128c6565b600f60209081526000928352604080842090915290825290205460ff8082169161010090041682565b6040516101689291906128f2565b3480156103ee57600080fd5b506101916103fd366004612817565b61188b565b34801561040e57600080fd5b506101ec61041d366004612911565b6118b5565b34801561042e57600080fd5b5061014461043d3660046129bc565b611a18565b336000908152600a60205260409020548411156104a65760405162461bcd60e51b815260206004820152601860248201527f506f6c69637920494420646f6573206e6f74206578697374000000000000000060448201526064015b60405180910390fd5b3360009081526009602090815260408083208784529091529020600881015460ff1661050c5760405162461bcd60e51b81526020600482015260156024820152742837b634b1bc9034b9903737ba1030b1ba34bb329760591b604482015260640161049d565b336000908152600e6020908152604080832088845290915290206002600582015460ff16600281111561054157610541612578565b148061054c57508054155b6105a45760405162461bcd60e51b8152602060048201526024808201527f4578697374696e6720636c61696d207374696c6c206265696e672070726f63656044820152631cdcd95960e21b606482015260840161049d565b3360008181526003602081815260408084208b85529091529091208881556001810180546001600160a01b0319169093179092556002820187905581016105eb8682612a66565b5083516106019060048301906020870190612176565b5060058101805460ff19908116909155600d840180549091169055336000908152600e602090815260408083208a845290915290208154815560018083015490820180546001600160a01b0319166001600160a01b0390921691909117905560028083015490820155819060038082019061067e90840182612b26565b506004828101805461069392840191906121cc565b50600582810154908201805460ff9092169160ff191660018360028111156106bd576106bd612578565b02179055505060048054915060006106d483612c17565b90915550506005805460018181018355600092909252825460069091027f036b6384b5eca791c62761152d0c79bb0604c104a5fb6f4eb0703f3154bb3db08101918255918301547f036b6384b5eca791c62761152d0c79bb0604c104a5fb6f4eb0703f3154bb3db1830180546001600160a01b0319166001600160a01b0390921691909117905560028301547f036b6384b5eca791c62761152d0c79bb0604c104a5fb6f4eb0703f3154bb3db283015582917f036b6384b5eca791c62761152d0c79bb0604c104a5fb6f4eb0703f3154bb3db3016107b56003840182612b26565b50600482810180546107ca92840191906121cc565b50600582810154908201805460ff9092169160ff191660018360028111156107f4576107f4612578565b0217905550505060005b600c548110156108c25760408051808201909152600080825260208201526004546000908152600f60205260408120600b80549192918590811061084457610844612c30565b60009182526020808320909101546001600160a01b0316835282810193909352604090910190208251815490151560ff19821681178355928401519192839161ff001990911661ffff19909116176101008360028111156108a7576108a7612578565b021790555090505080806108ba90612c17565b9150506107fe565b5050505050505050565b60606005805480602002602001604051908101604052809291908181526020016000905b82821015610aeb5760008481526020908190206040805160c081018252600686029092018054835260018101546001600160a01b03169383019390935260028301549082015260038201805491929160608401919061094e906129de565b80601f016020809104026020016040519081016040528092919081815260200182805461097a906129de565b80156109c75780601f1061099c576101008083540402835291602001916109c7565b820191906000526020600020905b8154815290600101906020018083116109aa57829003601f168201915b5050505050815260200160048201805480602002602001604051908101604052809291908181526020016000905b82821015610aa1578382906000526020600020018054610a14906129de565b80601f0160208091040260200160405190810160405280929190818152602001828054610a40906129de565b8015610a8d5780601f10610a6257610100808354040283529160200191610a8d565b820191906000526020600020905b815481529060010190602001808311610a7057829003601f168201915b5050505050815260200190600101906109f5565b50505090825250600582015460209091019060ff166002811115610ac757610ac7612578565b6002811115610ad857610ad8612578565b81525050815260200190600101906108f0565b50505050905090565b610afc612214565b6001600160a01b03808416600090815260096020908152604080832086845282529182902082516101c0810184528154909416845260018101549184019190915260028101549183019190915260038101805491929183916060840191610b62906129de565b80601f0160208091040260200160405190810160405280929190818152602001828054610b8e906129de565b8015610bdb5780601f10610bb057610100808354040283529160200191610bdb565b820191906000526020600020905b815481529060010190602001808311610bbe57829003601f168201915b50505050508152602001600482018054610bf4906129de565b80601f0160208091040260200160405190810160405280929190818152602001828054610c20906129de565b8015610c6d5780601f10610c4257610100808354040283529160200191610c6d565b820191906000526020600020905b815481529060010190602001808311610c5057829003601f168201915b505050505081526020016005820154815260200160068201805480602002602001604051908101604052809291908181526020016000905b82821015610d51578382906000526020600020018054610cc4906129de565b80601f0160208091040260200160405190810160405280929190818152602001828054610cf0906129de565b8015610d3d5780601f10610d1257610100808354040283529160200191610d3d565b820191906000526020600020905b815481529060010190602001808311610d2057829003601f168201915b505050505081526020019060010190610ca5565b5050509082525060078201546020820152600882015460ff161515604082015260098201546060820152600a8201546080820152600b82015460a0820152600c8201805460c090920191610da4906129de565b80601f0160208091040260200160405190810160405280929190818152602001828054610dd0906129de565b8015610e1d5780601f10610df257610100808354040283529160200191610e1d565b820191906000526020600020905b815481529060010190602001808311610e0057829003601f168201915b5050509183525050600d82015460209091019060ff166002811115610e4457610e44612578565b6002811115610e5557610e55612578565b9052509150505b92915050565b3360009081526002602052604090205460ff16610ed05760405162461bcd60e51b815260206004820152602660248201527f4f6e6c7920706f6c696379686f6c646572732063616e20766f7465206f6e206160448201526520636c61696d60d01b606482015260840161049d565b6004548210610f195760405162461bcd60e51b815260206004820152601560248201527421b630b4b6903237b2b9903737ba1032bc34b9ba1760591b604482015260640161049d565b6000828152600f6020908152604080832033845290915290205460ff1615610f835760405162461bcd60e51b815260206004820152601b60248201527f416c726561647920766f746564206f6e207468697320636c61696d0000000000604482015260640161049d565b6000828152600f6020908152604080832033845290915290208054600160ff1982168117835583929161ffff191617610100836002811115610fc757610fc7612578565b0217905550600080516020612daf833981519152816002811115610fed57610fed612578565b6040516110209190604080825260099082015268159bdd194810d85cdd60ba1b6060820152602081019190915260800190565b60405180910390a161103182611ade565b5050565b6001600160a01b0382166000908152600960209081526040808320848452909152902060018101546110a95760405162461bcd60e51b815260206004820152601760248201527f476f20616e642067656e6572617465205072656d69756d000000000000000000604482015260640161049d565b600881015460ff16156110f65760405162461bcd60e51b8152602060048201526015602482015274506f6c69637920616c72656164792041637469766560581b604482015260640161049d565b348160020154146111555760405162461bcd60e51b8152602060048201526024808201527f5072656d69756d206e6f742070616964206f7220696e636f727265637420616d6044820152631bdd5b9d60e21b606482015260840161049d565b61115e83611d68565b6111d257600b805460018101825560009182527f0175b7a638427703f0dbe7bb9bbf987a2551717b34e79f33b5b1008d1fa01db90180546001600160a01b0319166001600160a01b038616179055600c8054916111ba83612c17565b91905055506002600c546111ce9190612c46565b600d555b6001600160a01b03831660009081526002602052604090208054600160ff19918216811790925560088301805490911690911790554260098201819055600a820181905561122190603c612c68565b600b8201556040514281526001600160a01b038416907f1d0aee723ecbe1dc59372dddb114a75075912112266f94fc95b0313b17061a4e906020015b60405180910390a2505050565b600080600060045484106112c05760405162461bcd60e51b815260206004820152601860248201527f436c61696d20494420646f6573206e6f742065786973742e0000000000000000604482015260640161049d565b6000806000805b600c54811015611439576000888152600f60205260408120600b8054919291849081106112f6576112f6612c30565b60009182526020808320909101546001600160a01b0316835282019290925260400190205460ff1615611427578161132d81612c17565b9250600190506000898152600f60205260408120600b80549192918590811061135857611358612c30565b60009182526020808320909101546001600160a01b0316835282019290925260400190205460ff61010090910416600281111561139757611397612578565b036113ae57836113a681612c17565b945050611427565b60026000898152600f60205260408120600b8054919291859081106113d5576113d5612c30565b60009182526020808320909101546001600160a01b0316835282019290925260400190205460ff61010090910416600281111561141457611414612578565b03611427578261142381612c17565b9350505b8061143181612c17565b9150506112c7565b509196909550909350915050565b600e602090815260009283526040808420909152908252902080546001820154600283015460038401805493946001600160a01b039093169391929161148c906129de565b80601f01602080910402602001604051908101604052809291908181526020018280546114b8906129de565b80156115055780601f106114da57610100808354040283529160200191611505565b820191906000526020600020905b8154815290600101906020018083116114e857829003601f168201915b5050506005909301549192505060ff1685565b6001600160a01b03821660009081526009602081815260408084208585529091529091209081015461154b90603c612c68565b4210156115a45760405162461bcd60e51b815260206004820152602160248201527f506f6c696379206973206e6f74207965742064756520666f722072656e6577616044820152601b60fa1b606482015260840161049d565b806002015434146116025760405162461bcd60e51b815260206004820152602260248201527f496e636f7272656374207072656d69756d207061696420666f722072656e6577604482015261185b60f21b606482015260840161049d565b42600a820181905560088201805460ff191660011790556040516001600160a01b038516917fd9086eb85e0e770e1c2eecb0a4d3a99940d66ac91618f0a39022f007c606f5ef9161125d91815260200190565b6001600160a01b0382166000908152600960209081526040808320600a83528184205484529091529020600881015460ff166116d35760405162461bcd60e51b815260206004820152601a60248201527f506f6c69637920697320616c726561647920696e616374697665000000000000604482015260640161049d565b60088101805460ff199081169091556001600160a01b03841660009081526002602052604090208054909116905542600b820155600c81016117158382612a66565b50826001600160a01b03167f37a535e4fb7f1aa4e74d6d22f7cc6f6d54c5f35b2820f540518fc187b50a2b9d8342604051611751929190612c7b565b60405180910390a261176283611dd1565b505050565b6001546001600160a01b031633146117bb5760405162461bcd60e51b815260206004820152601760248201527621b0b63632b91034b9903737ba103a34329037bbb732b960491b604482015260640161049d565b47806118025760405162461bcd60e51b815260206004820152601660248201527527379032ba3432b9103632b33a103a3790323930b4b760511b604482015260640161049d565b6001546040516001600160a01b039091169082156108fc029083906000818181858888f19350505050158015611031573d6000803e3d6000fd5b6005818154811061184c57600080fd5b600091825260209091206006909102018054600182015460028301546003840180549395506001600160a01b0390921693909290919061148c906129de565b600b818154811061189b57600080fd5b6000918252602090912001546001600160a01b0316905081565b600080546040516381cad12b60e01b815282916001600160a01b0316906381cad12b906118ee908a908a908a908a908a90600401612c9d565b602060405180830381865afa15801561190b573d6000803e3d6000fd5b505050506040513d601f19601f8201168201806040525081019061192f9190612d34565b6001600160a01b0389166000908152600a602052604081205491925090611957906001612c68565b6001600160a01b038a166000818152600960209081526040808320858452909152902080546001600160a01b03191690911781556001810182905560028101849055909150600381016119aa8a82612a66565b50600481016119b98982612a66565b506005810187905585516119d69060068301906020890190612176565b50600781018590556001600160a01b038a166000908152600a60205260408120805491611a0283612c17565b9091555050600201549998505050505050505050565b6001546001600160a01b03163314611a6c5760405162461bcd60e51b815260206004820152601760248201527621b0b63632b91034b9903737ba103a34329037bbb732b960491b604482015260640161049d565b600b805460018101825560009182527f0175b7a638427703f0dbe7bb9bbf987a2551717b34e79f33b5b1008d1fa01db90180546001600160a01b0319166001600160a01b038416179055600c805491611ac483612c17565b91905055506002600c54611ad89190612c46565b600d5550565b6000806000805b600c54811015611c57576000858152600f60205260408120600b805491929184908110611b1457611b14612c30565b60009182526020808320909101546001600160a01b0316835282019290925260400190205460ff1615611c455781611b4b81612c17565b9250600190506000868152600f60205260408120600b805491929185908110611b7657611b76612c30565b60009182526020808320909101546001600160a01b0316835282019290925260400190205460ff610100909104166002811115611bb557611bb5612578565b03611bcc5783611bc481612c17565b945050611c45565b60026000868152600f60205260408120600b805491929185908110611bf357611bf3612c30565b60009182526020808320909101546001600160a01b0316835282019290925260400190205460ff610100909104166002811115611c3257611c32612578565b03611c455782611c4181612c17565b9350505b80611c4f81612c17565b915050611ae5565b506040805181815260098183015268417070726f76616c7360b81b6060820152602081018590529051600080516020612daf8339815191529181900360800190a160408051818152600a818301526952656a656374696f6e7360b01b6060820152602081018490529051600080516020612daf8339815191529181900360800190a160408051818152600b818301526a546f74616c20566f74657360a81b6060820152602081018390529051600080516020612daf8339815191529181900360800190a16002600c54611d2a9190612c46565b831115611d4157611d3c846001611e60565b611d62565b6002600c54611d509190612c46565b821115611d6257611d62846000611e60565b50505050565b6000805b600b54811015611dc857826001600160a01b0316600b8281548110611d9357611d93612c30565b6000918252602090912001546001600160a01b031603611db65750600192915050565b80611dc081612c17565b915050611d6c565b50600092915050565b600060015b6001600160a01b0383166000908152600a60205260409020548111611e3f576001600160a01b038316600090815260096020908152604080832084845290915290206008015460ff1615611e2d5760019150611e3f565b80611e3781612c17565b915050611dd6565b5080158015611e525750611e5282611d68565b156110315761103182611f65565b600060058381548110611e7557611e75612c30565b9060005260206000209060060201905081611e91576002611e94565b60015b60058201805460ff19166001836002811115611eb257611eb2612578565b0217905550600581015460028201546040517f3f9029b9e9bfa0455cae5afde9259e069afa9640dd8e7f26a6315bb4bf6ad33c92611ef792879260ff90921691612d4d565b60405180910390a18115611f225760018101546002820154611762916001600160a01b031690612094565b6001810180546001600160a01b03908116600090815260096020908152604080832086548452909152902060088101805460ff191690559154611d629116611dd1565b60005b600b5481101561103157816001600160a01b0316600b8281548110611f8f57611f8f612c30565b6000918252602090912001546001600160a01b03160361208257600b8054611fb990600190612d6e565b81548110611fc957611fc9612c30565b600091825260209091200154600b80546001600160a01b039092169183908110611ff557611ff5612c30565b9060005260206000200160006101000a8154816001600160a01b0302191690836001600160a01b03160217905550600b80548061203457612034612d81565b600082815260208120820160001990810180546001600160a01b0319169055909101909155600c80549161206783612d97565b91905055506002600c5461207b9190612c46565b600d555050565b8061208c81612c17565b915050611f68565b6000826001600160a01b03168260405160006040518083038185875af1925050503d80600081146120e1576040519150601f19603f3d011682016040523d82523d6000602084013e6120e6565b606091505b505090508061212e5760405162461bcd60e51b81526020600482015260146024820152732330b4b632b2103a379039b2b7321022ba3432b960611b604482015260640161049d565b60408051818152600c818301526b14185e5b595b9d0814d95b9d60a21b6060820152602081018490529051600080516020612daf8339815191529181900360800190a1505050565b8280548282559060005260206000209081019282156121bc579160200282015b828111156121bc57825182906121ac9082612a66565b5091602001919060010190612196565b506121c892915061229e565b5090565b8280548282559060005260206000209081019282156121bc5760005260206000209182015b828111156121bc57816122048482612b26565b50916001019190600101906121f1565b604051806101c0016040528060006001600160a01b0316815260200160008152602001600081526020016060815260200160608152602001600081526020016060815260200160008152602001600015158152602001600081526020016000815260200160008152602001606081526020016000600281111561229957612299612578565b905290565b808211156121c85760006122b282826122bb565b5060010161229e565b5080546122c7906129de565b6000825580601f106122d7575050565b601f0160209004906000526020600020908101906122f591906122f8565b50565b5b808211156121c857600081556001016122f9565b634e487b7160e01b600052604160045260246000fd5b604051601f8201601f1916810167ffffffffffffffff8111828210171561234c5761234c61230d565b604052919050565b600082601f83011261236557600080fd5b813567ffffffffffffffff81111561237f5761237f61230d565b612392601f8201601f1916602001612323565b8181528460208386010111156123a757600080fd5b816020850160208301376000918101602001919091529392505050565b600082601f8301126123d557600080fd5b8135602067ffffffffffffffff808311156123f2576123f261230d565b8260051b612401838201612323565b938452858101830193838101908886111561241b57600080fd5b84880192505b85831015612457578235848111156124395760008081fd5b6124478a87838c0101612354565b8352509184019190840190612421565b98975050505050505050565b6000806000806080858703121561247957600080fd5b8435935060208501359250604085013567ffffffffffffffff8082111561249f57600080fd5b6124ab88838901612354565b935060608701359150808211156124c157600080fd5b506124ce878288016123c4565b91505092959194509250565b6000815180845260005b81811015612500576020818501810151868301820152016124e4565b506000602082860101526020601f19601f83011685010191505092915050565b600082825180855260208086019550808260051b84010181860160005b8481101561256b57601f198684030189526125598383516124da565b9884019892509083019060010161253d565b5090979650505050505050565b634e487b7160e01b600052602160045260246000fd5b600381106122f557634e487b7160e01b600052602160045260246000fd5b6125b58161258e565b9052565b60006020808301818452808551808352604092508286019150828160051b87010184880160005b8381101561267157888303603f19018552815180518452878101516001600160a01b031688850152868101518785015260608082015160c0828701819052919061262c838801826124da565b92505050608080830151868303828801526126478382612520565b9250505060a080830151925061265c8361258e565b949094015293860193908601906001016125e0565b509098975050505050505050565b80356001600160a01b038116811461269657600080fd5b919050565b600080604083850312156126ae57600080fd5b6126b78361267f565b946020939093013593505050565b602081526126df6020820183516001600160a01b03169052565b6020820151604082015260408201516060820152600060608301516101c08060808501526127116101e08501836124da565b91506080850151601f19808685030160a087015261272f84836124da565b935060a087015160c087015260c08701519150808685030160e08701526127568483612520565b60e088015161010088810191909152880151909450915061012061277d8188018415159052565b87015161014087810191909152870151610160808801919091528701516101808088019190915287015186850382016101a0808901919091529092506127c385846124da565b945080880151925050506127d9828601826125ac565b5090949350505050565b600080604083850312156127f657600080fd5b8235915060208301356003811061280c57600080fd5b809150509250929050565b60006020828403121561282957600080fd5b5035919050565b85815260018060a01b038516602082015283604082015260a06060820152600061285d60a08301856124da565b90506128688361258e565b8260808301529695505050505050565b6000806040838503121561288b57600080fd5b6128948361267f565b9150602083013567ffffffffffffffff8111156128b057600080fd5b6128bc85828601612354565b9150509250929050565b600080604083850312156128d957600080fd5b823591506128e96020840161267f565b90509250929050565b8215158152604081016129048361258e565b8260208301529392505050565b60008060008060008060c0878903121561292a57600080fd5b6129338761267f565b9550602087013567ffffffffffffffff8082111561295057600080fd5b61295c8a838b01612354565b9650604089013591508082111561297257600080fd5b61297e8a838b01612354565b955060608901359450608089013591508082111561299b57600080fd5b506129a889828a016123c4565b92505060a087013590509295509295509295565b6000602082840312156129ce57600080fd5b6129d78261267f565b9392505050565b600181811c908216806129f257607f821691505b602082108103612a1257634e487b7160e01b600052602260045260246000fd5b50919050565b601f82111561176257600081815260208120601f850160051c81016020861015612a3f5750805b601f850160051c820191505b81811015612a5e57828155600101612a4b565b505050505050565b815167ffffffffffffffff811115612a8057612a8061230d565b612a9481612a8e84546129de565b84612a18565b602080601f831160018114612ac95760008415612ab15750858301515b600019600386901b1c1916600185901b178555612a5e565b600085815260208120601f198616915b82811015612af857888601518255948401946001909101908401612ad9565b5085821015612b165787850151600019600388901b60f8161c191681555b5050505050600190811b01905550565b818103612b31575050565b612b3b82546129de565b67ffffffffffffffff811115612b5357612b5361230d565b612b6181612a8e84546129de565b6000601f821160018114612b955760008315612b7d5750848201545b600019600385901b1c1916600184901b178455612bfa565b600085815260209020601f19841690600086815260209020845b83811015612bcf5782860154825560019586019590910190602001612baf565b5085831015612bed5781850154600019600388901b60f8161c191681555b50505060018360011b0184555b5050505050565b634e487b7160e01b600052601160045260246000fd5b600060018201612c2957612c29612c01565b5060010190565b634e487b7160e01b600052603260045260246000fd5b600082612c6357634e487b7160e01b600052601260045260246000fd5b500490565b80820180821115610e5c57610e5c612c01565b604081526000612c8e60408301856124da565b90508260208301529392505050565b60a081526000612cb060a08301886124da565b602083820381850152612cc382896124da565b915086604085015283820360608501528186518084528284019150828160051b85010183890160005b83811015612d1a57601f19878403018552612d088383516124da565b94860194925090850190600101612cec565b505080955050505050508260808301529695505050505050565b600060208284031215612d4657600080fd5b5051919050565b83815260608101612d5d8461258e565b602082019390935260400152919050565b81810381811115610e5c57610e5c612c01565b634e487b7160e01b600052603160045260246000fd5b600081612da657612da6612c01565b50600019019056fe3c5ad147104e56be34a9176a6692f7df8d2f4b29a5af06bc6b98970d329d6577a2646970667358221220063d5f36830826d62ada944d206a034718cc1594e6d326fdba4a6b1f0c0f70df64736f6c63430008130033",
    "sourcePath": "/home/panshak/InsuranceBackend/src/PropertyInsurancePolicy.sol",
    "compiler": {
        "name": "solc",
        "version": "0.8.19+commit.7dd6d404"
    },
    "functionHashes": {
        "Allclaims(uint256)": "d1a38b30",
        "Calculator()": "3441ecf2",
        "addVoter(address)": "f4ab9adf",
        "checkPolicy(address,uint256)": "5ee388f7",
        "checkPolicyStatus(address,uint256)": "89dbbd2e",
        "drainContract()": "d0360e59",
        "fileClaim(uint256,uint256,string,string[])": "13d74acd",
        "generatePremium(address,string,string,uint256,string[],uint256)": "e6e8ef4d",
        "getAllClaim()": "254b6ca6",
        "getVoteCounts(uint256)": "8a241f4c",
        "initiatePolicy(address,uint256)": "819d8643",
        "lastClaims(address,uint256)": "a2f7d4c3",
        "minimumVotes()": "6407e0d4",
        "owner()": "8da5cb5b",
        "renewPolicy(address,uint256)": "b8452652",
        "terminatePolicy(address,string)": "ccb9aae4",
        "totalVoters()": "5f5300ff",
        "voteOnClaim(uint256,uint8)": "6604462f",
        "voters(uint256)": "da58c7d9",
        "votes(uint256,address)": "d23254b4"
    },
    "gasEstimates": {
        "creation": {
            "codeDepositCost": "2356000",
            "executionCost": "infinite",
            "totalCost": "infinite"
        },
        "external": {
            "Allclaims(uint256)": "infinite",
            "Calculator()": "2405",
            "addVoter(address)": "99593",
            "checkPolicy(address,uint256)": "infinite",
            "checkPolicyStatus(address,uint256)": "2743",
            "drainContract()": "infinite",
            "fileClaim(uint256,uint256,string,string[])": "infinite",
            "generatePremium(address,string,string,uint256,string[],uint256)": "infinite",
            "getAllClaim()": "infinite",
            "getVoteCounts(uint256)": "infinite",
            "initiatePolicy(address,uint256)": "infinite",
            "lastClaims(address,uint256)": "infinite",
            "minimumVotes()": "2318",
            "owner()": "2360",
            "renewPolicy(address,uint256)": "52689",
            "terminatePolicy(address,string)": "infinite",
            "totalVoters()": "2407",
            "voteOnClaim(uint256,uint8)": "infinite",
            "voters(uint256)": "4680",
            "votes(uint256,address)": "2802"
        },
        "internal": {
            "finalizeClaim(uint256,bool)": "infinite",
            "isVoter(address)": "infinite",
            "processPayment(address,uint256)": "infinite",
            "removeVoter(address)": "infinite",
            "tallyVotes(uint256)": "infinite",
            "updateVoterStatus(address)": "infinite"
        }
    }
}