{
    "contractName": "PropertyPremiumCalculator",
    "abi": [
        {
            "inputs": [],
            "stateMutability": "nonpayable",
            "type": "constructor"
        },
        {
            "anonymous": false,
            "inputs": [
                {
                    "indexed": false,
                    "internalType": "uint256",
                    "name": "ageBracket",
                    "type": "uint256"
                },
                {
                    "indexed": false,
                    "internalType": "int256",
                    "name": "newAdjustment",
                    "type": "int256"
                }
            ],
            "name": "AgeAdjustmentUpdated",
            "type": "event"
        },
        {
            "anonymous": false,
            "inputs": [
                {
                    "indexed": false,
                    "internalType": "string",
                    "name": "location",
                    "type": "string"
                },
                {
                    "indexed": false,
                    "internalType": "uint256",
                    "name": "newMultiplier",
                    "type": "uint256"
                }
            ],
            "name": "LocationRiskMultiplierUpdated",
            "type": "event"
        },
        {
            "anonymous": false,
            "inputs": [
                {
                    "indexed": false,
                    "internalType": "string",
                    "name": "protection",
                    "type": "string"
                },
                {
                    "indexed": false,
                    "internalType": "int256",
                    "name": "newDiscount",
                    "type": "int256"
                }
            ],
            "name": "ProtectionDiscountUpdated",
            "type": "event"
        },
        {
            "anonymous": false,
            "inputs": [
                {
                    "indexed": false,
                    "internalType": "string",
                    "name": "properyType",
                    "type": "string"
                },
                {
                    "indexed": false,
                    "internalType": "uint256",
                    "name": "newMultiplier",
                    "type": "uint256"
                }
            ],
            "name": "TypeRiskMultiplierUpdated",
            "type": "event"
        },
        {
            "inputs": [
                {
                    "internalType": "uint256",
                    "name": "",
                    "type": "uint256"
                }
            ],
            "name": "ageAdjustments",
            "outputs": [
                {
                    "internalType": "int256",
                    "name": "",
                    "type": "int256"
                }
            ],
            "stateMutability": "view",
            "type": "function"
        },
        {
            "inputs": [
                {
                    "internalType": "string",
                    "name": "location",
                    "type": "string"
                },
                {
                    "internalType": "string",
                    "name": "properyType",
                    "type": "string"
                },
                {
                    "internalType": "uint256",
                    "name": "age",
                    "type": "uint256"
                },
                {
                    "internalType": "string[]",
                    "name": "protections",
                    "type": "string[]"
                },
                {
                    "internalType": "uint256",
                    "name": "propertyValue",
                    "type": "uint256"
                }
            ],
            "name": "calculateInsurancePremium",
            "outputs": [
                {
                    "internalType": "uint256",
                    "name": "",
                    "type": "uint256"
                }
            ],
            "stateMutability": "view",
            "type": "function"
        },
        {
            "inputs": [
                {
                    "internalType": "string[]",
                    "name": "protections",
                    "type": "string[]"
                }
            ],
            "name": "calculateProtectionDiscount",
            "outputs": [
                {
                    "internalType": "int256",
                    "name": "",
                    "type": "int256"
                }
            ],
            "stateMutability": "view",
            "type": "function"
        },
        {
            "inputs": [
                {
                    "internalType": "string",
                    "name": "",
                    "type": "string"
                }
            ],
            "name": "locationRiskMultipliers",
            "outputs": [
                {
                    "internalType": "uint256",
                    "name": "",
                    "type": "uint256"
                }
            ],
            "stateMutability": "view",
            "type": "function"
        },
        {
            "inputs": [],
            "name": "owner",
            "outputs": [
                {
                    "internalType": "address",
                    "name": "",
                    "type": "address"
                }
            ],
            "stateMutability": "view",
            "type": "function"
        },
        {
            "inputs": [
                {
                    "internalType": "string",
                    "name": "",
                    "type": "string"
                }
            ],
            "name": "protectionDiscounts",
            "outputs": [
                {
                    "internalType": "int256",
                    "name": "",
                    "type": "int256"
                }
            ],
            "stateMutability": "view",
            "type": "function"
        },
        {
            "inputs": [
                {
                    "internalType": "string",
                    "name": "",
                    "type": "string"
                }
            ],
            "name": "typeRiskMultipliers",
            "outputs": [
                {
                    "internalType": "uint256",
                    "name": "",
                    "type": "uint256"
                }
            ],
            "stateMutability": "view",
            "type": "function"
        },
        {
            "inputs": [
                {
                    "internalType": "uint256",
                    "name": "ageBracket",
                    "type": "uint256"
                },
                {
                    "internalType": "int256",
                    "name": "adjustment",
                    "type": "int256"
                }
            ],
            "name": "updateAgeAdjustment",
            "outputs": [],
            "stateMutability": "nonpayable",
            "type": "function"
        },
        {
            "inputs": [
                {
                    "internalType": "string",
                    "name": "location",
                    "type": "string"
                },
                {
                    "internalType": "uint256",
                    "name": "multiplier",
                    "type": "uint256"
                }
            ],
            "name": "updateLocationRiskMultiplier",
            "outputs": [],
            "stateMutability": "nonpayable",
            "type": "function"
        },
        {
            "inputs": [
                {
                    "internalType": "string",
                    "name": "protection",
                    "type": "string"
                },
                {
                    "internalType": "int256",
                    "name": "discount",
                    "type": "int256"
                }
            ],
            "name": "updateProtectionDiscount",
            "outputs": [],
            "stateMutability": "nonpayable",
            "type": "function"
        },
        {
            "inputs": [
                {
                    "internalType": "string",
                    "name": "properyType",
                    "type": "string"
                },
                {
                    "internalType": "uint256",
                    "name": "multiplier",
                    "type": "uint256"
                }
            ],
            "name": "updateTypeRiskMultiplier",
            "outputs": [],
            "stateMutability": "nonpayable",
            "type": "function"
        }
    ],
    "bytecode": "608060405234801561001057600080fd5b50600080546001600160a01b0319163317905561002b610030565b61026c565b6000546001600160a01b0316331461008e5760405162461bcd60e51b815260206004820152601760248201527f43616c6c6572206973206e6f7420746865206f776e6572000000000000000000604482015260640160405180910390fd5b608260016040516100a990636c6f633160e01b815260040190565b908152604080516020928190038301812093909355633637b19960e11b835260016004808501829052825160249581900386018120606490819055636c6f633360e01b82528183019390935283519081900390950185206050905561743160f01b8552600280860181905283516022968190038701812093909355613a1960f11b8352828101819052835192839003860183206078905561743360f01b8352828101819052835192839003860183206096905561703160f01b8352600383820181905284519384900387018420600919905561381960f11b845283820181905284519384900387018420600e19905561703360f01b84528382018190528451938490038701842060041990819055611c0d60f21b855291840152925191829003909401902060131990559190527f5c6b02db8b672415ffad906d7ccee10bd53dbad7d0b29e2bc0e50c93d5f310935560007ff7deed9399d719bf61dcb1322c056a03a885c275ab093673b0cc182b84bea06181905560057f9041ee6632bd2142b9cc58f348e0761559f8d964fe48ac6d87dc2b689213e3bb5560289052600a7f2b634da6ab875d88498f503820d9b51f6eb10d3d2f378c32aef2289b509f3def55565b610a828061027b6000396000f3fe608060405234801561001057600080fd5b50600436106100a95760003560e01c8063bbeb330311610071578063bbeb330314610152578063bdef85cb14610172578063caf8e11b14610185578063e3d4070514610198578063e4e31058146101c3578063fdae2d7d146101d657600080fd5b8063115ed4de146100ae5780633b7868d0146100ec57806381cad12b146100ff57806384be1f20146101125780638da5cb5b14610127575b600080fd5b6100d96100bc36600461064a565b805160208183018101805160028252928201919093012091525481565b6040519081526020015b60405180910390f35b6100d96100fa366004610726565b610201565b6100d961010d36600461075b565b61026d565b6101256101203660046107f5565b610396565b005b60005461013a906001600160a01b031681565b6040516001600160a01b0390911681526020016100e3565b6100d9610160366004610817565b60046020526000908152604090205481565b610125610180366004610830565b610419565b610125610193366004610830565b610497565b6100d96101a636600461064a565b805160208183018101805160018252928201919093012091525481565b6101256101d1366004610830565b610515565b6100d96101e436600461064a565b805160208183018101805160038252928201919093012091525481565b600080805b835181101561026657600384828151811061022357610223610875565b602002602001015160405161023891906108af565b9081526020016040518091039020548261025291906108e1565b91508061025e81610909565b915050610206565b5092915050565b60008060649050600060018860405161028691906108af565b908152602001604051809103902054905060006002886040516102a991906108af565b908152602001604051809103902054905060006102c587610201565b90506000601e89116102ff57600460006102e0600a8c610938565b6102eb90600a61094c565b81526020019081526020016000205461032c565b602860005260046020527f2b634da6ab875d88498f503820d9b51f6eb10d3d2f378c32aef2289b509f3def545b90506000818361033c86886108e1565b61034691906108e1565b61035091906108e1565b61035a9087610969565b90506127106103698983610969565b6103739190610999565b905060008113610384576000610386565b805b9c9b505050505050505050505050565b6000546001600160a01b031633146103c95760405162461bcd60e51b81526004016103c0906109c7565b60405180910390fd5b60008281526004602090815260409182902083905581518481529081018390527f84b7dd816dce8d85fec5cc848a0b6295c2420f31bdf8d1ed80e8ccb487db263291015b60405180910390a15050565b6000546001600160a01b031633146104435760405162461bcd60e51b81526004016103c0906109c7565b8060028360405161045491906108af565b9081526020016040518091039020819055507fa85fc23f1b09830624c3a9ae33e4dacb22157342f700bc911357f2de44e42482828260405161040d929190610a2a565b6000546001600160a01b031633146104c15760405162461bcd60e51b81526004016103c0906109c7565b806001836040516104d291906108af565b9081526020016040518091039020819055507f09cbcb6d9471cd0bb1cdc24353bd933da17dbf879c4e855c86eede7213ea6367828260405161040d929190610a2a565b6000546001600160a01b0316331461053f5760405162461bcd60e51b81526004016103c0906109c7565b8060038360405161055091906108af565b9081526020016040518091039020819055507ff83ff5c8325d4cff49edc0aef4317a51949e5e1b5b013f5c52ff7017da0732e5828260405161040d929190610a2a565b634e487b7160e01b600052604160045260246000fd5b604051601f8201601f1916810167ffffffffffffffff811182821017156105d2576105d2610593565b604052919050565b600082601f8301126105eb57600080fd5b813567ffffffffffffffff81111561060557610605610593565b610618601f8201601f19166020016105a9565b81815284602083860101111561062d57600080fd5b816020850160208301376000918101602001919091529392505050565b60006020828403121561065c57600080fd5b813567ffffffffffffffff81111561067357600080fd5b61067f848285016105da565b949350505050565b600082601f83011261069857600080fd5b8135602067ffffffffffffffff808311156106b5576106b5610593565b8260051b6106c48382016105a9565b93845285810183019383810190888611156106de57600080fd5b84880192505b8583101561071a578235848111156106fc5760008081fd5b61070a8a87838c01016105da565b83525091840191908401906106e4565b98975050505050505050565b60006020828403121561073857600080fd5b813567ffffffffffffffff81111561074f57600080fd5b61067f84828501610687565b600080600080600060a0868803121561077357600080fd5b853567ffffffffffffffff8082111561078b57600080fd5b61079789838a016105da565b965060208801359150808211156107ad57600080fd5b6107b989838a016105da565b95506040880135945060608801359150808211156107d657600080fd5b506107e388828901610687565b95989497509295608001359392505050565b6000806040838503121561080857600080fd5b50508035926020909101359150565b60006020828403121561082957600080fd5b5035919050565b6000806040838503121561084357600080fd5b823567ffffffffffffffff81111561085a57600080fd5b610866858286016105da565b95602094909401359450505050565b634e487b7160e01b600052603260045260246000fd5b60005b838110156108a657818101518382015260200161088e565b50506000910152565b600082516108c181846020870161088b565b9190910192915050565b634e487b7160e01b600052601160045260246000fd5b8082018281126000831280158216821582161715610901576109016108cb565b505092915050565b60006001820161091b5761091b6108cb565b5060010190565b634e487b7160e01b600052601260045260246000fd5b60008261094757610947610922565b500490565b8082028115828204841417610963576109636108cb565b92915050565b80820260008212600160ff1b84141615610985576109856108cb565b8181058314821517610963576109636108cb565b6000826109a8576109a8610922565b600160ff1b8214600019841416156109c2576109c26108cb565b500590565b60208082526017908201527f43616c6c6572206973206e6f7420746865206f776e6572000000000000000000604082015260600190565b60008151808452610a1681602086016020860161088b565b601f01601f19169290920160200192915050565b604081526000610a3d60408301856109fe565b9050826020830152939250505056fea2646970667358221220266e0f5ef2aa89198c87097ccf199e4f950c2ed12df8971610d781049aa40c4c64736f6c63430008130033",
    "sourcePath": "/home/panshak/InsuranceBackend/src/PropertyPremiumCalculator.sol",
    "compiler": {
        "name": "solc",
        "version": "0.8.19+commit.7dd6d404"
    },
    "functionHashes": {
        "ageAdjustments(uint256)": "bbeb3303",
        "calculateInsurancePremium(string,string,uint256,string[],uint256)": "81cad12b",
        "calculateProtectionDiscount(string[])": "3b7868d0",
        "locationRiskMultipliers(string)": "e3d40705",
        "owner()": "8da5cb5b",
        "protectionDiscounts(string)": "fdae2d7d",
        "typeRiskMultipliers(string)": "115ed4de",
        "updateAgeAdjustment(uint256,int256)": "84be1f20",
        "updateLocationRiskMultiplier(string,uint256)": "caf8e11b",
        "updateProtectionDiscount(string,int256)": "e4e31058",
        "updateTypeRiskMultiplier(string,uint256)": "bdef85cb"
    },
    "gasEstimates": {
        "creation": {
            "codeDepositCost": "538000",
            "executionCost": "320495",
            "totalCost": "858495"
        },
        "external": {
            "ageAdjustments(uint256)": "2427",
            "calculateInsurancePremium(string,string,uint256,string[],uint256)": "infinite",
            "calculateProtectionDiscount(string[])": "infinite",
            "locationRiskMultipliers(string)": "infinite",
            "owner()": "2426",
            "protectionDiscounts(string)": "infinite",
            "typeRiskMultipliers(string)": "infinite",
            "updateAgeAdjustment(uint256,int256)": "25974",
            "updateLocationRiskMultiplier(string,uint256)": "infinite",
            "updateProtectionDiscount(string,int256)": "infinite",
            "updateTypeRiskMultiplier(string,uint256)": "infinite"
        },
        "internal": {
            "initializeDefaults()": "infinite"
        }
    }
}